:020000040000FA
:040000008A110B282E
:10000800FE00030EF0000A08F1008A11D72D8A11AC
:100018000D288313DC30FD000330FE008930FF001B
:10002800A03084008A11AE258A114B30FD000430BF
:10003800FE006930FF00203084008A11AE258A1145
:100048008A11DE258A11FA008A11DF258A11FB0040
:10005800EB01EC01ED0183018A110C2983120313D2
:10006800DE005230D6005608D900F72825305F0642
:1000780003193F2840284C285F08D6005E088400F2
:100088005608831380000130D6005608DE07F7288B
:10009800DA010130D107FF30510784008A113D256C
:1000A8008A11DF00D600D7015708003A03195D28E6
:1000B800F7285608003A03190729643A03196828EB
:1000C8000D3A03196828F728590884008313000893
:1000D800DC00840A0008DD000230D6005608D90783
:1000E800DD1F7728782881280330D6005608DA04DF
:1000F800DC09DD09DC0A0319DD0ADF01DF0A5F0814
:10010800D6005607013E84008A113D258A11D70082
:100118008A113D258A11D80058085D02031D9628CA
:1001280057085C02031899289A289B28A5280130AB
:10013800D6005608DF0705305F06031DA428A5284A
:1001480083285A0803390319AA28AB28B6282D3062
:10015800D6005E0884005608831380000130D6005C
:100168005608DE075F08D6005608DB00EE280A307E
:10017800CB000030CC005B08D6005607013E840057
:100188008A113D258A11F2008A113D258A11F30052
:100198005D08F5005C08F4008A1145238A1173088C
:1001A80083120313CE007208CD008A11C5238A1169
:1001B800831203134B08303ED7005708DF005F084F
:1001C800D6005E0884005608831380000130D600EC
:1001D8005608DE07FF30D6005608DB075B0A031D0A
:1001E800F628F728BB280130D107FF3051078400D3
:1001F8008A113D258A11D6005608DF005F08031DC5
:10020800062907293A285E0884008313800108001C
:1002180083160313910107308312031399000430E6
:100228008316031385008312031385013030831668
:100238000313870083120313870110108E018F01A7
:10024800303090000C108A11FE228A11F401F50159
:1002580001308A11B9248A1183120313051935292B
:100268003629302910108E018F010C108A110124B3
:100278008A1183120313051D4229432930291014BA
:1002880005194729482944290C1C4B294C29D129EF
:1002980010108E018F010C10C9290030071A013087
:1002A800EA006A08690603195A295B298B296A0337
:1002B800031D5F2960298B290030871A01306A06DF
:1002C800031967296829822903306B0203186D29ED
:1002D8006E297D290130E7006708EB076B08E70006
:1002E800E8016708CD006808CE008A1179228A11D2
:1002F8008B290330E7006708EB008B296B0803198B
:10030800862987298A290130EB027229EB01831299
:1003180003136A08E7006708E900051D9429952971
:10032800C9291014051999299A2996290C189D2963
:100338009E29C4296B08031DA229A329A7298A116C
:1003480053258A11C4296B03031DAB29AC29B02995
:100358008A117F258A11C42902306B06031DB5292D
:10036800B629BA298A11DD218A11C42903306B06FE
:10037800031DBF29C029C4298A1169258A11C429E6
:100388008312031310108E018F010C1CCC29CD2968
:1003980051298A1195258A1130298A1137248A1101
:1003A80083120313051DD929DA29D429CD298A11E5
:1003B8000B28173083120313E0006008E5000530AE
:1003C800E0006008E6008A1195258A11F4010030E2
:1003D8008A1120258A11B1308A11FF248A110C3024
:1003E80083120313E0006008F40000308A1120250E
:1003F8008A1120308A11FF248A11722A0030071AC4
:100408000130ED006D086C0603190B2A0C2A4A2AE4
:100418006D03031D102A112A4A2A0030871A013059
:100428006D060319182A192A352A6608053EE000C0
:100438006008E6000A306606031D232A242A4A2A91
:10044800E6016430650203182A2A2B2A302A013073
:10045800E0006008E5074A2A6330E0006008E5002C
:100468004A2A6608053EE0006008E6000A3066068B
:10047800031D3F2A402A4A2AE60165080319452A2E
:10048800462A492A0130E5024A2AE5016D08E000BA
:100498006008EC000B30E0006008D1006508E1005E
:1004A800E2016108D2006208D3006608E300E401B3
:1004B8006308D4006408D50020308A1132208A11DC
:1004C8000C3083120313E0006008F40000308A1136
:1004D80020258A1120308A11FF248A1183120313E0
:1004E800051D772A782A022A0800831203134D086B
:1004F8004E04031D802A812A9B2A8A1195258A1178
:10050800F40100308A1120258A117E308A11942442
:100518008A113E308A11FF248A11F40101308A11B0
:1005280020258A1139308A11FF248A11FD2A4D03AA
:100538004E04031DA02AA12ABB2A8A1195258A11D7
:10054800F40100308A1120258A117E308A11942402
:100558008A1139308A11FF248A11F40101308A1175
:1005680020258A11B1308A11FF248A11FD2A023010
:100578004D064E04031DC12AC22ADC2A8A1195257C
:100588008A11F40100308A1120258A117E308A11DF
:1005980094248A11B1308A11FF248A11F4010130A0
:1005A8008A1120258A11C6308A11FF248A11FD2A52
:1005B80003304D064E04031DE22AE32AFD2A8A1160
:1005C80095258A11F40100308A1120258A117E3080
:1005D8008A1194248A11C6308A11FF248A11F401E1
:1005E80001308A1120258A11A0308A11FF248A112E
:1005F800FD2A08004130F500EE30F400F40B022B20
:10060800F50B022B000003308A11CB258A11073025
:10061800F5007D30F400F40B0F2BF50B0F2B033096
:100628008A11CB258A112730F400F40B192B1C2BC7
:1006380003308A11CB258A1102308A11CB258A1101
:1006480002308A11CB258A1108308A11CB258A11EC
:1006580000308A11CB258A1108308A11CB258A11DE
:1006680000308A11CB258A1101308A11CB258A11D5
:1006780000308A11CB258A1106308A11CB258A11C0
:100688000800F701F8017208730403194C2B4D2B6D
:10069800842BF901F90A5B2B01300310F20DF30DDD
:1006A800FF3E031D512B0130F6007608F907F31FB2
:1006B8005E2B5F2B502B01300310F70DF80DFF3E1A
:1006C800031D602B73087502031D6C2B72087402DE
:1006D800031C6F2B702B772B7208F4027308031C12
:1006E800F503F502771401300310F30CF20CFF3E0A
:1006F800031D782B0130F902031D832B842B5F2BFC
:100708007808F3007708F20008002D342D342D34D2
:100718002D342D342D342D342D342D342D342D34C9
:100728002D342D342D342D342D3400345434653487
:100738006D347034653472346134743475347234A1
:1007480065340034333430342F34303437342F3474
:10075800393432340034483475346D34693464348F
:100768006934743479340034313432343A343034BE
:10077800303450344D340034323431342E3435343E
:100788000034831203134B084C040319CC2BCD2BD4
:10079800FC2BD001D00ADB2B01300310CB0DCC0D84
:1007A800FF3E031DD12B0130CF004F08D007CC1FCF
:1007B800DE2BDF2BD02B4C084E02031DE52B4B08FC
:1007C8004D02031CE82BE92BEF2B4B08CD024C08FC
:1007D800031CCE03CE0201300310CC0CCB0CFF3E21
:1007E800031DF02B0130D002031DFB2BFC2BDF2B4C
:1007F8004E08CC004D08CB0008002A308A11FF248F
:100808008A110730F9007908F40000308A11202590
:100818008A11D7308A11FF248A117E308A119424D4
:100828008A1120308A11FF248A11F40101308A11BB
:1008380020258A1125308A11FF248A110930F900F0
:100848007908F40001308A1120258A1147308A116D
:10085800FF248A117E308A1194248A1143308A1128
:10086800FF248A1108008A1195258A11F4010030A5
:100878008A1120258A1134308A11FF248A110A30FE
:1008880083120313CD004D08F40000308A1120258F
:100898008A11CF308A11FF248A11F40101308A119C
:1008A80020258A112F308A11FF248A1108308312DB
:1008B8000313CD004D08F40001308A1120258A1158
:1008C800BD308A11FF248A110800323433342E34A3
:1008D80035340034483475346D3469340034543454
:1008E80065346D34703400344434613474346534A0
:1008F8000034543469346D3465340034443461341C
:10090800743465340034543469346D3465340034D7
:100918003434353425340034333438342534003411
:10092800F700831203138516F6017708F3000430E5
:100938000310F30CFF3E031D9C2C7308F40074088D
:10094800F50077080F39F3007308F60075088A1167
:10095800DD248A118A11BB258A1176088A11DD24C3
:100968008A118A11BB258A110800F70000308A1104
:10097800CB258A110C30F6007608F8007703031DA2
:10098800C62CC72CD82C7403031DCB2CCC2CCD2CF7
:10099800F8147503031DD12CD22CD32C78147808A5
:1009A8008A11CB258A11DC2C08308A11CB258A11B3
:1009B8000800F200721CE12CE22CE62C83120313CF
:1009C8000714E92C831203130710F21CEC2CED2CEE
:1009D800EF2C8714F02C8710721DF32CF42CF62CB6
:1009E8000715F72C0711F21DFA2CFB2CFD2C871587
:1009F800FE2C8711080083120313CC00CB01CB0116
:100A0800142D4B084C07F8007808840000088A1158
:100A180094248A110130F800780883120313CB0755
:100A28004B084C07F8007808840083130008031D5E
:100A38001E2D1F2D052D0800F7007708031D252DF5
:100A4800262D2B2D08308A11CB258A11342D7703BA
:100A5800031D2F2D302D342D0C308A11CB258A11F2
:100A68007408F5007508F60076088A11CB258A11F6
:100A7800080005308A000408840A8207003401341B
:100A880000340A34003464340034E8340334103455
:100A98002734253464342E3425346434003400304B
:100AA80083120313071A0130ED006D086C06031951
:100AB8005E2D5F2D642D6D03031D632D642D642D44
:100AC8006D08F2007208EC0008000030831203136E
:100AD800071A0130ED006D086C060319742D752D89
:100AE8007A2D6D03031D792D7A2D7A2D6D08F2006C
:100AF8007208EC000800003083120313071A013053
:100B0800ED006D086C0603198A2D8B2D902D6D0351
:100B1800031D8F2D902D902D6D08F2007208EC00AA
:100B28000800F40100308A1120258A11F9012030CB
:100B38008A1194248A110130F8007808F907503096
:100B48007902031CA82DA92D9B2D08007E088A0078
:100B58007F0882008A11AA258A118000840A040865
:100B68007D0603190034FF0A0319FE0AAE2D03306F
:100B7800F200F20BBD2D831203130516A630F20006
:100B8800F20BC42D00008312031305120800F300B2
:100B980083120313851273088A11DD248A118A11BE
:100BA800BB258A11080071088A00700E8300FE0EAA
:080BB8007E0E0900053417341C
:02400E00F4308C
:00000001FF
