:020000040000FA
:040000008A110B282E
:10000800FE00030EF0000A08F1008A119C2A8A11EA
:100018000D2883134930FD000130FE005F30FF00DA
:10002800203084008A1173228A1183018A111C28C6
:1000380083160313910107308312031399000430C8
:10004800831603138500831203138501303083164A
:100058000313870083120313870110108E018F0189
:10006800303090000C108A1118218A11F401F50122
:1000780001308A11F7218A114B308400831203134F
:10008800200883138000840A21088000840A22083B
:100098008000840A23088000840A24088000840AD7
:1000A800250880008312031305195B285C2856284D
:1000B80010108E018F010C108A11CC208A11831226
:1000C8000313051D682869285628101405196D287A
:1000D8006E286A280C1C7128722886288A115A22D0
:1000E8008A114B30F8000030F9008A1188218A11F2
:1000F80083120313051D812882287C288A115A221D
:100108008A1156288A115A228A11F40100308A115C
:100118003D228A111030F8008030F9008A118821B8
:100128008A110A3083120313CA004A08F400003007
:100138008A113D228A112F30F8000030F9008A1107
:1001480088218A11F40101308A113D228A110B306D
:10015800F8008030F9008A1188218A11083083124A
:100168000313CA004A08F40001308A113D228A119B
:100178002630F8000030F9008A1188218A1183128C
:100188000313051DC828C928C32882288A110B28EB
:100198000630F8008030F9008A1188218A1107306A
:1001A80083120313C9004908F40000308A113D2264
:1001B8008A113C30F8000030F9008A1188218A1130
:1001C8007E308A11AE218A113730F8000030F900EC
:1001D8008A1188218A11F40101308A113D228A117D
:1001E8000130F8008030F9008A1188218A1109301D
:1001F80083120313C9004908F40001308A113D2213
:100208008A114530F8000030F9008A1188218A11D6
:100218007E308A11AE218A114130F8000030F90091
:100228008A1188218A1108004130F500EE30F40067
:10023800F40B1C29F50B1C29000003308A119022AD
:100248008A110730F5007D30F400F40B2929F50BED
:10025800292903308A1190228A112730F400F40BDF
:100268003329362903308A1190228A1102308A11E3
:1002780090228A1102308A1190228A1108308A113C
:1002880090228A1100308A1190228A1108308A112E
:1002980090228A1100308A1190228A1101308A1125
:1002A80090228A1100308A1190228A1106308A1110
:1002B80090228A110800683465346C346C346F34C9
:1002C8000034333430342F34303437342F34393425
:1002D80032340034313432343A34303430345034F7
:1002E8004D340034323433342E343534003432341F
:1002F80031342E3435340034343435342534003434
:100308003334383425340034FB01FB019C297B0845
:100318007807840079080318790AFF008A11D32125
:100328008A118A11AE218A110130FA007A08FB0776
:100338007B087807840079080318790A8312031365
:10034800FF008A11D3218A11003A031DAC29AD2977
:100358008B290800F700831203138516F601770826
:10036800F30004300310F30CFF3E031DB629730895
:10037800F4007408F50077080F39F3007308F600E5
:1003880075088A111B228A118A1180228A1176081F
:100398008A111B228A118A1180228A110800FF1BE8
:1003A800DD2983137F1883170008840A0319FF0ABD
:1003B800080001308A000408840A8207003448349F
:1003C80075346D3469340034543465346D347034A4
:1003D800003444346134743465340034543469343A
:1003E8006D3465340034F70000308A1190228A1188
:1003F8000C30F6007608F8007703031D042A052A56
:10040800162A7403031D092A0A2A0B2AF8147503ED
:10041800031D0F2A102A112A781478088A119022AD
:100428008A111A2A08308A1190228A110800F200CB
:10043800721C1F2A202A242A831203130714272A2E
:10044800831203130710F21C2A2A2B2A2D2A871439
:100458002E2A8710721D312A322A342A0715352A86
:100468000711F21D382A392A3B2A87153C2A871199
:100478000800F7007708031D422A432A482A083053
:100488008A1190228A11512A7703031D4C2A4D2A7A
:10049800512A0C308A1190228A117408F5007508C7
:1004A800F60076088A1190228A110800F4010030BB
:1004B8008A113D228A11F90120308A11AE218A1150
:1004C8000130F8007808F90750307902031C6D2ACA
:1004D8006E2A602A08007E088A007F0882008A1136
:1004E8006F228A118000840A04087D0603190034EB
:1004F800FF0A0319FE0A732A0330F200F20B822A5C
:10050800831203130516A630F200F20B892A0000A5
:100518008312031305120800F300831203138512D4
:1005280073088A111B228A118A1180228A110800F5
:0E05380071088A00700E8300FE0E7E0E090010
:02400E00F4308C
:00000001FF
