:020000040000FA
:040000008A110B282E
:10000800FE00030EF0000A08F1008A11F62F8A118B
:100018000D288313E330FD000530FE00B130FF00EA
:10002800A03084008A11D9278A114930FD00063092
:10003800FE00DC30FF00203084008A11D9278A11A5
:10004800ED01EE01EF0183018A11C12A2A308312E2
:100058000313E1006108E8008A11C0278A11F4013E
:1000680000308A1170278A113C308A118D278A1135
:10007800093083120313E1006108F40000308A118B
:1000880070278A1125308A118D278A11AF280030F0
:10009800071A0130EF006F086E0603195428552817
:1000A8007D286F03031D59285A287D280030871A98
:1000B80001306F060319612862286E280230210278
:1000C800031C672868286B280130A1027D28A1013C
:1000D800A10A7D280C302102031873287428792876
:1000E8000130E1006108A1077D280C30E1006108BA
:1000F800A1006F08E1006108EE002530CD00003056
:10010800CE000B30E1006108CF002108E200E301D6
:100118006208D0006308D1002008E400E501640803
:10012800D2006508D3006808E600E7016608D40035
:100138006708D5008A1196218A11093083120313A2
:10014800E1006108F40000308A1170278A11253017
:100158008A118D278A1183120313051DB428B52827
:100168004B280519B828B928B5281C290030071AC2
:100178000130EF006F086E060319C328C428EA2867
:100188006F03031DC828C928EA280030871A0130E0
:100198006F060319D028D128DB2820080319D52891
:1001A800D628D9280130A002EA28A001EA283B3045
:1001B80020020318E028E128E6280130E100610860
:1001C800A007EA283B30E1006108A0006F08E100C1
:1001D8006108EE002530CD000030CE000B30E10084
:1001E8006108CF002108E200E3016208D00063083B
:1001F800D1002008E400E5016408D2006508D300B6
:100208006808E600E7016608D4006708D5008A1187
:1002180096218A11093083120313E1006108F40062
:1002280000308A1170278A1125308A118D278A118A
:1002380083120313051D21292229BA280519252906
:10024800262922298F290030071A0130EF006F086C
:100258006E060319302931295B296F03031D3529DF
:1002680036295B290030871A01306F0603193D29AA
:100278003E294D296808E100E2016108CD006208C5
:10028800CE002730E3006308CF008A1196218A1137
:100298005B296808E100E2016108CD006208CE0030
:1002A8002A30E3006308CF008A1196218A1183124D
:1002B80003136F08E1006108EE002530CD0000301F
:1002C800CE000B30E1006108CF002108E200E30115
:1002D8006208D0006308D1002008E400E501640842
:1002E800D2006508D3006808E600E7016608D40074
:1002F8006708D5008A1196218A11093083120313E1
:10030800E1006108F40000308A1170278A11253055
:100318008A118D278A1183120313051D94299529A3
:1003280027290800503083120313D6005608DB0033
:10033800AA2A253060060319A229A329B32960082F
:10034800D6004D08840083174E1C8313560880007E
:100358000130CD070318CE0A0030CE07AA2AD901EA
:10036800F5295B08840083130008DC00840A000870
:100378008403DD000230D6005608DB075C085D0404
:10038800031DC729C829E8291530DC008030DD00A5
:10039800E8295D08FF005C0884008A1100268A119C
:1003A800D6004D08840083174E1C8313560880001E
:1003B8000130DC070318DD0A0030DD070130CD0706
:1003C8000318CE0A0030CE075D08FF005C088400E1
:1003D8008A1100268A11003A031DF329F429CD2930
:1003E800AA2A0130CF07FF304F0784008A110A2656
:1003F8008A11E000D600D7015708003A0319052AE8
:10040800A3295608003A0319BA2A643A0319132A89
:100418000D3A0319132A1A3A0319B529A3295B08B7
:10042800840083130008DE00840A0008DF0002301D
:10043800D6005608DB07DF1F222A232A2C2A03307E
:10044800D6005608D904DE09DF09DE0A0319DF0AD7
:10045800E001E00A6008D6005607013E84008A11D0
:100468000A268A11D7008A110A268A11D800580844
:100478005F02031D412A57085E020318442A452AD1
:10048800462A502A0130D6005608E0070530600693
:10049800031D4F2A502A2E2A590803390319552AB1
:1004A800562A652A2D30D6004D08840083174E1C25
:1004B8008313560880000130CD070318CE0A003098
:1004C800CE076008D6005608DA00A12A0A30C9000B
:1004D8000030CA005A08D6005607013E84008A1127
:1004E8000A268A11F2008A110A268A11F3005F0887
:1004F800F5005E08F4008A116D258A1173088312CD
:100508000313CC007208CB008A113C268A1183128F
:1005180003134908303ED7005708E0006008D600AA
:100528004D08840083174E1C831356088000013041
:10053800CD070318CE0A0030CE07FF30D600560884
:10054800DA075A0A031DA92AAA2A6A2A0130CF07FC
:10055800FF304F0784008A110A268A11D6005608F0
:10056800E0006008031DB92ABA2A9D294D088400B5
:1005780083174E1C8313800108008316031391010F
:100588000730831203139900043083160313850080
:1005980083120313850130308316031387008312F7
:1005A8000313870110108E018F01303090000C105A
:1005B8008A1126258A11F401F50101308A112A27AA
:1005C8008A11831203130519EA2AEB2AE52A101067
:1005D8008E018F010C108A1178268A118312031359
:1005E800051DF72AF82AE52A10140519FC2AFD2A00
:1005F800F92A0C1C002B012B8A2B10108E018F015D
:100608000C10822B0030071A0130EC006C086B06C6
:1006180003190F2B102B402B6C03031D142B152BC8
:10062800402B0030871A01306C0603191C2B1D2B38
:10063800312B6D080319212B222B2F2B0130ED02B2
:100648006D08E900EA016908C9006A08CA008A1148
:100658002B248A11402BED01402B03306D02031827
:10066800362B372B3C2B0130E9006908ED07242B8A
:100678000330E9006908ED00831203136C08E900F0
:100688006908EB00051D492B4A2B822B1014051D08
:100698004E2B4F2B532B0C1C522B532B4B2B0C1824
:1006A800562B572B7D2B6D08031D5B2B5C2B602B6A
:1006B8008A112A208A117D2B6D03031D642B652B5B
:1006C800692B8A11AA278A117D2B02306D06031D1A
:1006D8006E2B6F2B732B8A1196238A117D2B033077
:1006E8006D06031D782B792B7D2B8A11B0248A1176
:1006F8007D2B8312031310108E018F010C1C852B88
:10070800862B062B8A11C0278A11E52A8A11AE2664
:100718008A1183120313051D922B932B8D2B862B85
:100728008A110B288A11C0278A11F40100308A1116
:1007380070278A11B1308A118D278A110C308312E3
:100748000313E1006108F40000308A1170278A1150
:100758002D308A118D278A11242C0030071A013078
:10076800EF006F086E060319BA2BBB2BF92B6F032A
:10077800031DBF2BC02BF92B0030871A01306F06E1
:100788000319C72BC82BDE2B2308053EE10061089F
:10079800A3000A302306031DD22BD32BF92BA30168
:1007A80024080319D82BD92BDC2B0130A402F92BF0
:1007B800A401F92B2308053EE1006108A3000A30D3
:1007C8002306031DE82BE92BF92BA301643024022F
:1007D8000318EF2BF02BF52B0130E1006108A4077B
:1007E800F92B6330E1006108A4006F08E10061089B
:1007F800EE002D30CD000030CE001C30E100610845
:10080800CF002408E200E3016208D0006308D100A9
:100818002308E400E5016408D2006508D3008A11C2
:1008280096218A110C3083120313E1006108F40049
:1008380000308A1170278A112D308A118D278A116C
:1008480083120313051D292C2A2CB12B08008312AF
:10085800031349084A04031D322C332C4D2C8A11EA
:10086800C0278A11F40100308A1170278A117E305E
:100878008A1105278A113C308A118D278A11F401C3
:1008880001308A1170278A1137308A118D278A1111
:10089800AF2C49034A04031D522C532C6D2C8A118A
:1008A800C0278A11F40100308A1170278A117E301E
:1008B8008A1105278A1137308A118D278A11F40188
:1008C80001308A1170278A11B1308A118D278A1157
:1008D800AF2C023049064A04031D732C742C8E2C4D
:1008E8008A11C0278A11F40100308A1170278A11F1
:1008F8007E308A1105278A11B1308A118D278A1115
:10090800F40101308A1170278A11C6308A118D27A7
:100918008A11AF2C033049064A04031D942C952CE8
:10092800AF2C8A11C0278A11F40100308A11702770
:100938008A117E308A1105278A11C6308A118D27BF
:100948008A11F40101308A1170278A11A0308A11A6
:100958008D278A11AF2C08008A11C0278A11F4014B
:1009680000308A1170278A11C6308A118D278A11A2
:100978000D3083120313E1006108F40000308A117E
:1009880070278A1141308A118D278A111F2D003056
:10099800071A0130EF006F086E060319D42CD52C06
:1009A800FB2C6F03031DD92CDA2CFB2C0030871A83
:1009B80001306F060319E12CE22CEC2C22080319F4
:1009C800E62CE72CEA2C0130A202FB2CA201FB2C1E
:1009D800643022020318F12CF22CF72C0130E100CC
:1009E8006108A207FB2C6330E1006108A2006F08D0
:1009F800E1006108EE004130CD000030CE00223029
:100A0800E1006108CF002208E200E3016208D0009B
:100A18006308D1008A1196218A110D3083120313BD
:100A2800E1006108F40000308A1170278A11413012
:100A38008A118D278A1183120313051D242D252D54
:100A4800CB2C08004130F500EE30F400F40B2A2DD1
:100A5800F50B2A2D000003308A11F4258A1107307E
:100A6800F5007D30F400F40B372DF50B372D0330EE
:100A78008A11F4258A112730F400F40B412D442DF6
:100A880003308A11F4258A1102308A11F4258A115B
:100A980002308A11F4258A1108308A11F4258A1146
:100AA80000308A11F4258A1108308A11F4258A1138
:100AB80000308A11F4258A1101308A11F4258A112F
:100AC80000308A11F4258A1106308A11F4258A111A
:100AD8000800F701F801720873040319742D752DC5
:100AE800AC2DF901F90A832D01300310F20DF30D35
:100AF800FF3E031D792D0130F6007608F907F31F34
:100B0800862D872D782D01300310F70DF80DFF3E47
:100B1800031D882D73087502031D942D7208740235
:100B2800031C972D982D9F2D7208F4027308031C3F
:100B3800F503F502771401300310F30CF20CFF3EB5
:100B4800031DA02D0130F902031DAB2DAC2D872DFF
:100B58007808F3007708F20008002D342D342D347E
:100B68002D342D342D342D342D342D342D342D3475
:100B78002D342D342D342D342D3400345434653433
:100B88006D3470346534723461347434753472344D
:100B980065340034333430342F34303437342F3420
:100BA800393432340034483475346D34693464343B
:100BB8006934743479340034323431342E34353471
:100BC8000034483475346D34693400345434653431
:100BD8006D34703400344434613474346534003412
:100BE800F30083120313851273088A114E278A11A2
:100BF8008A11E6278A110800FF1B0A2E83137F1823
:100C080083170008840A0319FF0A080006308A00BF
:100C18000408840A82070034013400340A3400349A
:100C280064340034E834033410342734253464340D
:100C38003A34253464345B34253473345D340034F9
:100C480028346E3475346C346C34293400342534CB
:100C580064342E3425346434003425346434253423
:100C68002534003441344D34003450344D3400348C
:100C78008312031349084A040319432E442E732E82
:100C8800FB01FB0A522E01300310C90DCA0DFF3EAD
:100C9800031D482E0130FA007A08FB07CA1F552E9B
:100CA800562E472E4A084C02031D5C2E49084B025B
:100CB800031C5F2E602E662E4908CB024A08031CCF
:100CC800CC03CC0201300310CA0CC90CFF3E031D33
:100CD800672E0130FB02031D722E732E562E4C0810
:100CE800CA004B08C9000800D9308A118D278A111B
:100CF8000730FB007B08F40000308A1170278A1146
:100D0800CF308A118D278A117E308A1105278A11E2
:100D18002D308A118D278A11F40101308A1170272C
:100D28008A11D4308A118D278A110930FB007B087B
:100D3800F40001308A1170278A1145308A118D27F5
:100D48008A117E308A1105278A1141308A118D2730
:100D58008A1108008A11C0278A11F40100308A110B
:100D680070278A1132308A118D278A110930FB00C9
:100D78007B08F40000308A1170278A1125308A1107
:100D88008D278A11F40101308A1170278A11DE300B
:100D98008A118D278A110830FB007B08F400013086
:100DA8008A1170278A11BD308A118D278A1108008F
:100DB8001E340A342D3405341734313432343A347D
:100DC8003034303450344D340034323433342E34EB
:100DD80035340034543469346D3465340034443463
:100DE8006134743465340034543469346D34653492
:100DF800003434343534253400343334383425342D
:100E08000034F700831203138516F6017708F30000
:100E180004300310F30CFF3E031D0D2F7308F4007C
:100E28007408F50077080F39F3007308F6007508A1
:100E38008A114E278A118A11E6278A1176088A11A3
:100E48004E278A118A11E6278A110800F700003018
:100E58008A11F4258A110C30F6007608F800770319
:100E6800031D372F382F492F7403031D3C2F3D2FA7
:100E78003E2FF8147503031D422F432F442F781477
:100E880078088A11F4258A114D2F08308A11F42523
:100E98008A110800F200721C522F532F572F831209
:100EA800031307145A2F831203130710F21C5D2F24
:100EB8005E2F602F8714612F8710721D642F652F96
:100EC800672F0715682F0711F21D6B2F6C2F6E2FD8
:100ED80087156F2F87110800F7007708031D752FF6
:100EE800762F7B2F08308A11F4258A11842F7703F7
:100EF800031D7F2F802F842F0C308A11F4258A112F
:100F08007408F5007508F60076088A11F4258A1128
:100F18000800FA00F901F9019E2F79087A07F8000C
:100F28007808840000088A1105278A110130F80022
:100F38007808F90779087A07F80078088400831395
:100F48000008031DA82FA92F912F08000030831235
:100F58000313071A0130EF006F086E060319B52F47
:100F6800B62FBB2F6F03031DBA2FBB2FBB2F6F08E4
:100F7800F2007208EE000800F40100308A117027B0
:100F88008A11F90120308A1105278A110130F800E9
:100F98007808F90750307902031CD32FD42FC62FB5
:100FA80008007E088A007F0882008A11D5278A11E6
:100FB8008000840A04087D0603190034FF0A031917
:100FC800FE0AD92F0330F200F20BE82F8312031325
:100FD8000516A630F200F20BEF2F00008312031360
:100FE8000512080071088A00700E8300FE0E7E0E3E
:020FF8000900EE
:02400E00F4308C
:00000001FF
