:020000040000FA
:040000008A110B282E
:10000800FE00030EF0000A08F1008A11942B8A11F1
:100018000D2883134330FD000230FE00F030FF004E
:10002800203084008A116B238A11C90183018A1147
:100038001D288316031391010730831203139900B7
:1000480004308316031385008312031385013030AF
:1000580083160313870083120313870110108E0180
:100068008F01303090000C108A1197218A11F40109
:10007800F50101308A11CC228A1183120313051964
:1000880046284728412810108E018F010C108A112C
:100098004B218A1183120313051D53285428412824
:1000A800101405195828592855280C1C5C285D2857
:1000B800AF2810108E018F01AA284908C500C60173
:1000C8004508C3004608C4008A11BE208A110030C2
:1000D80083120313071A0130C8004808470603199A
:1000E800762877289D284803031D7B287C289D288F
:1000F8000030871A01304806031983288428942879
:1001080004304902031889288A288F280130C5003D
:100118004508C9079D280430C5004508C9009D2821
:1001280049080319982899289C280130C9029D2854
:10013800C9014808C5004508C700051DA428A52809
:10014800AA2810140519A928AA28A6280C18AD2829
:10015800AE28612841288A1143228A118312031389
:10016800051DB728B828B2288A1152238A114128B8
:100178008A110B288312031343084404031DC5285E
:10018800C628E2288A1152238A11F40100308A1104
:1001980035238A112F30F8008030F9008A11812226
:1001A8008A11F40101308A1135238A112A30F800A6
:1001B8008030F9008A1181228A114A2943034404B4
:1001C800031DE728E82804298A1152238A11F4011B
:1001D80000308A1135238A112A30F8008030F9005E
:1001E8008A1181228A11F40101308A1135238A117A
:1001F8000130F8008030F9008A1181228A114A29D9
:10020800023043064404031D0A290B2927298A11B1
:1002180052238A11F40100308A1135238A110130E2
:10022800F8008030F9008A1181228A11F401013026
:100238008A1135238A110D30F8008030F9008A11AF
:1002480081228A114A29033043064404031D2D29BB
:100258002E294A298A1152238A11F40100308A1161
:1002680035238A110D30F8008030F9008A11812277
:100278008A11F40101308A1135238A112F30F800D0
:100288008030F9008A1181228A114A2908001B301E
:10029800F8008030F9008A1181228A110730831210
:1002A8000313C3004308F40000308A1135238A1170
:1002B8003630F8000030F9008A1181228A117E3028
:1002C8008A11A7228A113130F8000030F9008A110A
:1002D80081228A11F40101308A1135238A111630DE
:1002E800F8008030F9008A1181228A1109308312BE
:1002F8000313C3004308F40001308A1135238A111F
:100308003F30F8000030F9008A1181228A117E30CE
:100318008A11A7228A113B30F8000030F9008A11AF
:1003280081228A1108004130F500EE30F400F40B08
:100338009B29F50B9B29000003308A1188238A1119
:100348000730F5007D30F400F40BA829F50BA82937
:1003580003308A1188238A112730F400F40BB2295C
:10036800B52903308A1188238A1102308A1188231B
:100378008A1102308A1188238A1108308A11882349
:100388008A1100308A1188238A1108308A1188233B
:100398008A1100308A1188238A1101308A11882332
:1003A8008A1100308A1188238A1106308A1188231D
:0403B8008A1108009E
:10040000FF1B0A2A83137F1883170008840A031925
:10041000FF0A080002308A000408840A82070034B8
:10042000543465346D3470346534723461347434EA
:100430007534723465340034483475346D3469343D
:1004400064346934743479340034483475346D3428
:1004500069340034543465346D34703400344434B9
:100460006134743465340034543469346D34653423
:1004700000344434613474346534003454346934A1
:100480006D34653400348A1152238A11F40100302E
:100490008A1135238A112530F8008030F9008A113D
:1004A00081228A110A3083120313C3004308F40027
:1004B00000308A1135238A112930F8000030F90004
:1004C0008A1181228A11F40101308A1135238A119F
:1004D0002030F8008030F9008A1181228A1108301A
:1004E00083120313C3004308F40001308A1135233B
:1004F0008A112030F8000030F9008A1181228A1117
:100500000800FB01FB01952A7B0878078400790825
:100510000318790AFF008A1100228A118A11A72282
:100520008A110130FA007A08FB077B0878078400FB
:1005300079080318790A83120313FF008A11002235
:100540008A11003A031DA52AA62A842A0800F7006A
:10055000831203138516F6017708F30004300310A5
:10056000F30CFF3E031DAF2A7308F4007408F50076
:1005700077080F39F3007308F60075088A11132302
:100580008A118A1178238A1176088A1113238A1115
:100590008A1178238A110800F70000308A11882315
:1005A0008A110C30F6007608F8007703031DD92A6B
:1005B000DA2AEB2A7403031DDE2ADF2AE02AF81464
:1005C0007503031DE42AE52AE62A781478088A11BF
:1005D00088238A11EF2A08308A1188238A1108009B
:1005E000333430342F34303437342F3439343234D8
:1005F0000034313432343A343034303450344D34C1
:100600000034323433342E3435340034323431341F
:100610002E34353400343434353425340034333416
:10062000383425340034F200721C172B182B1C2B85
:100630008312031307141F2B831203130710F21CDA
:10064000222B232B252B8714262B8710721D292B59
:100650002A2B2C2B07152D2B0711F21D302B312B9C
:10066000332B8715342B87110800F7007708031DFB
:100670003A2B3B2B402B08308A1188238A11492BB7
:100680007703031D442B452B492B0C308A118823FB
:100690008A117408F5007508F60076088A11882317
:1006A0008A110800F40100308A1135238A11F901FA
:1006B00020308A11A7228A110130F8007808F90742
:1006C00050307902031C652B662B582B08007E08DE
:1006D0008A007F0882008A1167238A118000840AB9
:1006E00004087D0603190034FF0A0319FE0A6B2B68
:1006F0000330F200F20B7A2B831203130516A63097
:10070000F200F20B812B0000831203130512080084
:10071000F30083120313851273088A1113238A11BD
:100720008A1178238A11080071088A00700E8300EC
:06073000FE0E7E0E090022
:02400E00F4308C
:00000001FF
