:020000040000FA
:040000008A110B282E
:10000800FE00030EF0000A08F1008A11962B8A11EF
:100018000D2883134330FD000230FE00F230FF004C
:10002800203084008A116D238A11FB0183018A1113
:100038001D288316031391010730831203139900B7
:1000480004308316031385008312031385013030AF
:1000580083160313870083120313870110108E0180
:100068008F01303090000C108A1191218A11F4010F
:10007800F50101308A11CE228A1183120313051962
:1000880046284728412810108E018F010C108A112C
:1000980045218A1183120313051D5328542841282A
:1000A800101405195828592855280C1C5C285D2857
:1000B800AC2810108E018F01A7288A11BB208A1145
:1000C80083120313071E69286A2864280030071A58
:1000D8000130C800480847060319732874289A286D
:1000E8004803031D782879289A280030871A013098
:1000F8004806031980288128912804307B020318B8
:10010800862887288C280130C6004608FB079A28CD
:100118000430C6004608FB009A287B080319952876
:10012800962899280130FB029A28FB014808C60046
:100138004608C700051DA128A228A72810140519DC
:10014800A628A728A3280C18AA28AB286128412884
:100158008A1143228A1183120313051DB428B52876
:10016800AF288A1154238A1141288A110B282C2977
:100178008A1154238A11F40100308A1137238A1115
:100188002F30F8008030F9008A1181228A11F40199
:1001980001308A1137238A112A30F8008030F9009B
:1001A8008A1181228A1144298A1154238A11F4015F
:1001B80000308A1137238A112A30F8008030F9007C
:1001C8008A1181228A11F40101308A1137238A1198
:1001D8000130F8008030F9008A1181228A114429FF
:1001E8008A1154238A11F40100308A1137238A11A5
:1001F8000130F8008030F9008A1181228A11F40157
:1002080001308A1137238A110D30F8008030F90047
:100218008A1181228A1144298A1154238A11F401EE
:1002280000308A1137238A110D30F8008030F90028
:100238008A1181228A11F40101308A1137238A1127
:100248002F30F8008030F9008A1181228A11442960
:100258007B0883120313C400C5014508003A03193B
:10026800362944294408003A0319BC28013A0319DD
:10027800D828033A0319F428013A03191029442904
:1002880008001B30F8008030F9008A1181228A1199
:10029800073083120313C4004408F40000308A11A5
:1002A80037238A113630F8000030F9008A1181228C
:1002B8008A117E308A11A9228A113130F800003063
:1002C800F9008A1181228A11F40101308A11372339
:1002D8008A111630F8008030F9008A1181228A11BB
:1002E800093083120313C4004408F40001308A1152
:1002F80037238A113F30F8000030F9008A11812233
:100308008A117E308A11A9228A113B30F800003008
:10031800F9008A1181228A1108004130F500EE3077
:10032800F400F40B9529F50B9529000003308A1188
:100338008A238A110730F5007D30F400F40BA229D6
:10034800F50BA22903308A118A238A112730F40079
:10035800F40BAC29AF2903308A118A238A110230A1
:100368008A118A238A1102308A118A238A11083055
:100378008A118A238A1100308A118A238A11083047
:100388008A118A238A1100308A118A238A1101303E
:100398008A118A238A1100308A118A238A11063029
:0803A8008A118A238A11080062
:10040000FF1B0A2A83137F1883170008840A031925
:10041000FF0A080002308A000408840A82070034B8
:10042000543465346D3470346534723461347434EA
:100430007534723465340034483475346D3469343D
:1004400064346934743479340034483475346D3428
:1004500069340034543465346D34703400344434B9
:100460006134743465340034543469346D34653423
:1004700000344434613474346534003454346934A1
:100480006D34653400348A1154238A11F40100302C
:100490008A1137238A112530F8008030F9008A113B
:1004A00081228A110A3083120313C4004408F40025
:1004B00000308A1137238A112930F8000030F90002
:1004C0008A1181228A11F40101308A1137238A119D
:1004D0002030F8008030F9008A1181228A1108301A
:1004E00083120313C4004408F40001308A11372337
:1004F0008A112030F8000030F9008A1181228A1117
:10050000080083120313C301C301992A4308780723
:10051000840079080318790AFF008A1100228A11E1
:100520008A11A9228A110130FA007A088312031372
:10053000C30743087807840079080318790AFF0085
:100540008A1100228A11003A031DA72AA82A862AA6
:100550000800F700831203138516F6017708F300ED
:1005600004300310F30CFF3E031DB12A7308F4009E
:100570007408F50077080F39F3007308F600750862
:100580008A1115238A118A117A238A1176088A1111
:1005900015238A118A117A238A110800F700003086
:1005A0008A118A238A110C30F6007608F800770346
:1005B000031DDB2ADC2AED2A7403031DE02AE12A4D
:1005C000E22AF8147503031DE62AE72AE82A7814BC
:1005D00078088A118A238A11F12A08308A118A231D
:1005E0008A110800333430342F34303437342F3408
:1005F000393432340034313432343A3430343034F3
:1006000050344D340034323433342E3435340034E5
:10061000323431342E3435340034343435342534E6
:1006200000343334383425340034F200721C192B72
:100630001A2B1E2B831203130714212B831203136F
:100640000710F21C242B252B272B8714282B87100F
:10065000721D2B2B2C2B2E2B07152F2B0711F21D68
:10066000322B332B352B8715362B87110800F700DB
:100670007708031D3C2B3D2B422B08308A118A231F
:100680008A114B2B7703031D462B472B4B2B0C302A
:100690008A118A238A117408F5007508F600760815
:1006A0008A118A238A110800F40100308A11372345
:1006B0008A11F90120308A11A9228A110130F8002B
:1006C0007808F90750307902031C672B682B5A2BE6
:1006D00008007E088A007F0882008A1169238A1137
:1006E0008000840A04087D0603190034FF0A0319F8
:1006F000FE0A6D2B0330F200F20B7C2B83120313E6
:100700000516A630F200F20B832B000083120313B0
:1007100005120800F30083120313851273088A116F
:1007200015238A118A117A238A11080071088A0018
:0A073000700E8300FE0E7E0E09001D
:02400E00F4308C
:00000001FF
