:020000040000FA
:040000008A110B282E
:10000800FE00030EF0000A08F1008A11BF2F8A11C2
:100018000D288313E330FD000530FE006030FF003B
:10002800A03084008A1196278A114630FD000630D8
:10003800FE009C30FF00203084008A1196278A1128
:10004800EC01ED01EE01EF0183018A11762A8A1194
:100058007D278A11F40100308A112D278A11393041
:100068008A114A278A110B3083120313DF005F08B5
:10007800F40000308A112D278A1124308A114A276A
:100088008A11C8280030071A0130EE006E086D0684
:1000980003194F28502876286E03031D5428552825
:1000A80076280030871A01306E0603195C285D280F
:1000B8006728200803196128622865280130A002F2
:1000C8007628A00176281830200203186C286D289D
:1000D80072280130DF005F08A00776281830DF009B
:1000E8005F08A0006E08DF005F08ED000A306F02AD
:1000F800031C7F28802885282630DF005F08E4005D
:1001080089282730DF005F08E4000A302002031C3A
:100118008E288F2894282630DF005F08E50098286D
:100128002730DF005F08E5000B30DF005F08CA00FA
:100138006508CB000030031D8030CC002008E000AB
:10014800E1016008CD006108CE006408CF000030EE
:10015800031D8030D0006F08E200E3016208D1007F
:100168006308D20024308A115C218A110B30831273
:100178000313DF005F08F40000308A112D278A116D
:1001880024308A114A278A1183120313051DCD28AA
:10019800CE2846280519D128D228CE28552900303E
:1001A800071A0130EE006E086D060319DC28DD28F9
:1001B80003296E03031DE128E22803290030871A6A
:1001C80001306E060319E928EA28F4286F08031994
:1001D800EE28EF28F2280130EF020329EF01032966
:1001E8003B306F020318F928FA28FF280130DF0096
:1001F8005F08EF0703293B30DF005F08EF006E0858
:10020800DF005F08ED000A306F02031C0C290D297E
:1002180012292630DF005F08E60016292730DF00A4
:100228005F08E6000A302002031C1B291C2921292B
:100238002630DF005F08E70025292730DF005F0848
:10024800E7000B30DF005F08CA006708CB0000300A
:10025800031D8030CC002008E000E1016008CD00DB
:100268006108CE006608CF000030031D8030D00042
:100278006F08E200E3016208D1006308D20024306D
:100288008A115C218A110B3083120313DF005F0887
:10029800F40000308A112D278A1124308A114A2748
:1002A8008A1183120313051D5A295B29D3280800D4
:1002B80083120313DD004B30D3005308D800612AA2
:1002C80025305E06031969296A2976295E08D30054
:1002D8005D0884005308831380000130D30053085D
:1002E800DD07612AD601B429580884008313000861
:1002F800D900840A00088403DA000230D3005308C6
:10030800D80759085A04031D8A298B29A7291530AB
:10031800D9008030DA00A7295A08FF00590884005C
:100328008A1100268A11D3005D08840053088313BC
:1003380080000130D9070318DA0A0030DA070130E3
:10034800D3005308DD075A08FF00590884008A11B2
:1003580000268A11003A031DB229B3299029612A7F
:100368000130CA07FF304A0784008A110A268A1119
:10037800DE00D300D4015408003A0319C4296A29BD
:100388005308003A0319712A643A0319D2290D3A1D
:100398000319D2291A3A031978296A2958088400B6
:1003A80083130008DB00840A0008DC000230D30055
:1003B8005308D807DC1FE129E229EB290330D300D1
:1003C8005308D604DB09DC09DB0A0319DC0ADE0161
:1003D800DE0A5E08D3005307013E84008A110A260C
:1003E8008A11D4008A110A268A11D50055085C02A0
:1003F800031D002A54085B020318032A042A052A4D
:100408000F2A0130D3005308DE0705305E06031DAE
:100418000E2A0F2AED29560803390319142A152A1A
:10042800202A2D30D3005D088400530883138000F0
:100438000130D3005308DD075E08D3005308D70006
:10044800582A0A30C6000030C7005708D30053079F
:10045800013E84008A110A268A11F2008A110A26AE
:100468008A11F3005C08F5005B08F4008A111C256A
:100478008A11730883120313C9007208C8008A110D
:10048800A3258A11831203134608303ED40054086A
:10049800DE005E08D3005D088400530883138000E3
:1004A8000130D3005308DD07FF30D3005308D707C6
:1004B800570A031D602A612A252A0130CA07FF301E
:1004C8004A0784008A110A268A11D3005308DE00DD
:1004D8005E08031D702A712A64295D08840083134D
:1004E8008001080083160313910107308312031358
:1004F80099000430831603138500831203138501C2
:1005080030308316031387008312031387011010FA
:100518008E018F01303090000C108A11D5248A1179
:10052800F401F50101308A11E7268A1183120313B9
:1005380005199F2AA02A9A2A10108E018F010C10E3
:100548008A1138268A1183120313051DAC2AAD2A95
:100558009A2A10140519B12AB22AAE2A0C1CB52AF7
:10056800B62A3F2B10108E018F010C10372B00304C
:10057800071A0130EB006B086A060319C42AC52A5A
:10058800F52A6B03031DC92ACA2AF52A0030871ADF
:1005980001306B060319D12AD22AE62A6C080319FE
:1005A800D62AD72AE42A0130EC026C08E800E901CF
:1005B8006808C6006908C7008A11DD238A11F52A70
:1005C800EC01F52A03306C020318EB2AEC2AF12A15
:1005D8000130E8006808EC07D92A0330E800680809
:1005E800EC00831203136B08E8006808EA00051D95
:1005F800FE2AFF2A372B1014051D032B042B082B6A
:100608000C1C072B082B002B0C180B2B0C2B322B3C
:100618006C08031D102B112B152B8A112B208A1106
:10062800322B6C03031D192B1A2B1E2B8A116727DB
:100638008A11322B02306C06031D232B242B282B06
:100648008A114B238A11322B03306C06031D2D2B84
:100658002E2B322B8A1162248A11322B8312031318
:1006680010108E018F010C1C3A2B3B2BBB2A8A11D0
:100678007D278A119A2A8A116E268A1183120313FA
:10068800051D472B482B422B3B2B8A110B288A111F
:100698007D278A11F40100308A112D278A11B13083
:1006A8008A114A278A110C3083120313DF005F086E
:1006B800F40000308A112D278A112A308A114A271E
:1006C8008A11D62B0030071A0130EE006E086D062D
:1006D80003196F2B702BAE2B6E03031D742B752B18
:1006E800AE2B0030871A01306E0603197C2B7D2B48
:1006F800932B2208053EDF005F08A2000A3022067D
:10070800031D872B882BAE2BA201230803198D2BE1
:100718008E2B912B0130A302AE2BA301AE2B220806
:10072800053EDF005F08A2000A302206031D9D2B4C
:100738009E2BAE2BA201643023020318A42BA52BF9
:10074800AA2B0130DF005F08A307AE2B6330DF0060
:100758005F08A3006E08DF005F08ED001C30DF00B3
:100768005F08CA002308E000E1016008CB006108C7
:10077800CC002208E200E3016208CD006308CE0045
:100788002A308A115C218A110C3083120313DF008E
:100798005F08F40000308A112D278A112A308A1147
:1007A8004A278A1183120313051DDB2BDC2B662BCA
:1007B80008008312031346084704031DE42BE52BA6
:1007C800FF2B8A117D278A11F40100308A112D2709
:1007D8008A117E308A11C2268A1139308A114A2735
:1007E8008A11F40101308A112D278A1134308A11B7
:1007F8004A278A11612C46034704031D042C052C43
:100808001F2C8A117D278A11F40100308A112D27A7
:100818008A117E308A11C2268A1134308A114A27F9
:100828008A11F40101308A112D278A11B1308A11F9
:100838004A278A11612C023046064704031D252CDD
:10084800262C402C8A117D278A11F40100308A1148
:100858002D278A117E308A11C2268A11B1308A1159
:100868004A278A11F40101308A112D278A11C630CE
:100878008A114A278A11612C033046064704031D52
:10088800462C472C612C8A117D278A11F4010030EF
:100898008A112D278A117E308A11C2268A11C63004
:1008A8008A114A278A11F40101308A112D278A11E9
:1008B800A0308A114A278A11612C08008A117D27E5
:1008C8008A11F40100308A112D278A11C6308A1145
:1008D8004A278A110D3083120313DF005F08F400E2
:1008E80000308A112D278A113E308A114A278A1131
:1008F800CE2C0030071A0130EE006E086D06031981
:10090800862C872CAD2C6E03031D8B2C8C2CAD2CC8
:100918000030871A01306E060319932C942C9E2CF4
:1009280021080319982C992C9C2C0130A102AD2C7C
:10093800A101AD2C643021020318A32CA42CA92CEE
:100948000130DF005F08A107AD2C6330DF005F08CE
:10095800A1006E08DF005F08ED002230DF005F08AD
:10096800CA002108E000E1016008CB006108CC0062
:100978003E308A115C218A110D3083120313DF0087
:100988005F08F40000308A112D278A113E308A1141
:100998004A278A1183120313051DD32CD42C7D2CCE
:1009A80008004130F500EE30F400F40BD92CF50BBB
:1009B800D92C000003308A11B3278A110730F500BB
:1009C8007D30F400F40BE62CF50BE62C03308A118D
:1009D800B3278A112730F400F40BF02CF32C0330E2
:1009E8008A11B3278A1102308A11B3278A1102307B
:1009F8008A11B3278A1108308A11B3278A11003067
:100A08008A11B3278A1108308A11B3278A11003056
:100A18008A11B3278A1101308A11B3278A1100304D
:100A28008A11B3278A1106308A11B3278A11080060
:100A3800F701F801720873040319232D242D5B2D87
:100A4800F901F90A322D01300310F20DF30DFF3EC2
:100A5800031D282D0130F6007608F907F31F352D00
:100A6800362D272D01300310F70DF80DFF3E031D1D
:100A7800372D73087502031D432D72087402031C79
:100A8800462D472D4E2D7208F4027308031CF503FA
:100A9800F502771401300310F30CF20CFF3E031D2E
:100AA8004F2D0130F902031D5A2D5B2D362D780884
:100AB800F3007708F20008002D342D342D342D343E
:100AC8002D342D342D342D342D342D342D342D3416
:100AD8002D342D342D342D340034543465346D3494
:100AE80070346534723461347434753472346534F6
:100AF8000034333430342F34303437342F343934ED
:100B080032340034483475346D34693464346934AB
:100B1800743479340034323431342E34353400347A
:100B2800483475346D3469340034543465346D3464
:100B380070340034443461347434653400348312BE
:100B48000313460847040319AA2DAB2DDA2DFB0120
:100B5800FB0AB92D01300310C60DC70DFF3E031D5A
:100B6800AF2D0130FA007A08FB07C71FBC2DBD2D39
:100B7800AE2D47084902031DC32D46084802031C31
:100B8800C62DC72DCD2D4608C8024708031CC9032A
:100B9800C90201300310C70CC60CFF3E031DCE2D41
:100BA8000130FB02031DD92DDA2DBD2D4908C700E0
:060BB8004808C600080019
:100C0000FF1B0A2E83137F1883170008840A031919
:100C1000FF0A080006308A000408840A82070034AC
:100C2000013400340A34003464340034E8340334CA
:100C30001034273425347334253464343A3425345D
:100C4000733425346434003428346E3475346C3491
:100C50006C3429340034253464342E34253464341F
:100C600000342534643425342534003430340034E1
:100C7000D9308A114A278A110730FB007B08F4001B
:100C800000308A112D278A11CF308A114A278A1104
:100C90007E308A11C2268A112A308A114A278A1187
:100CA000F40101308A112D278A11D4308A114A2784
:100CB0008A110930FB007B08F40001308A112D27CE
:100CC0008A1142308A114A278A117E308A11C2263F
:100CD0008A113E308A114A278A1108008A117D271D
:100CE0008A11F40100308A112D278A112F308A11C0
:100CF0004A278A110B30FB007B08F40000308A1170
:100D00002D278A1124308A114A278A11F4010130D3
:100D10008A112D278A11DE308A114A278A1108305C
:100D2000FB007B08F40001308A112D278A11BD30A9
:100D30008A114A278A11080018342D3405341734D3
:100D4000323434343A34303430340034323433349E
:100D50002E3435340034543469346D346534003401
:100D600044346134743465340034543469346D343B
:100D70006534003434343534253400343334383475
:100D800025340034F700831203138516F601770823
:100D9000F30004300310F30CFF3E031DCA2E73084A
:100DA000F4007408F50077080F39F3007308F600B3
:100DB00075088A110B278A118A11A3278A117608D0
:100DC0008A110B278A118A11A3278A110800F700BC
:100DD00000308A11B3278A110C30F6007608F8002B
:100DE0007703031DF42EF52E062F7403031DF92E31
:100DF000FA2EFB2EF8147503031DFF2E002F012F72
:100E0000781478088A11B3278A110A2F08308A11BA
:100E1000B3278A110800F200721C0F2F102F142F15
:100E2000831203130714172F831203130710F21CE6
:100E30001A2F1B2F1D2F87141E2F8710721D212F75
:100E4000222F242F0715252F0711F21D282F292FB8
:100E50002B2F87152C2F87110800F7007708031D0B
:100E6000322F332F382F08308A11B3278A11412FA0
:100E70007703031D3C2F3D2F412F0C308A11B327E0
:100E80008A117408F5007508F60076088A11B327F0
:100E90008A110800FA00F901F9015B2F79087A0735
:100EA000F8007808840000088A11C2268A110130EF
:100EB000F8007808F90779087A07F80078088400BC
:100EC00083130008031D652F662F4E2F0800003086
:100ED00083120313071A0130EE006E086D06031922
:100EE000722F732F782F6E03031D772F782F782F93
:100EF0006E08F2007208ED000800F40100308A115B
:100F00002D278A11F90120308A11C2268A11013059
:100F1000F8007808F90750307902031C902F912FC0
:100F2000832F08007E088A007F0882008A1192279A
:100F30008A118000840A04087D0603190034FF0A20
:100F40000319FE0A962F0330F200F20BA52F83122D
:100F500003130516A630F200F20BAC2F000083122B
:100F6000031305120800F30083120313851273089C
:100F70008A110B278A118A11A3278A110800710888
:0C0F80008A00700E8300FE0E7E0E090039
:02400E00F4308C
:00000001FF
